:100C1C0057656C636F6D652020275F27202020208F
:100C2C00202000486F772061726520796F75200055
:100C3C0044722E4C696C61200042656E692D5365BF
:100C4C00756600556E6976657273697479284253BE
:100C5C00552900456E7465722050617373776F72FD
:100C6C00643A2000436F727265637400446F6F7254
:100C7C00206973206F70656E204472005345435594
:100C8C00524954592056494F4C4154494F4E0063D8
:100C9C006F72726563742050617373776F72642026
:100CAC0000414C41524D2044495341424C45440073
:0F0CBC0057524F4E472050617373776F72640029
:100E390002080001010C31010D32010E35010F3894
:10080000E4F519C285C286C287D2B6D2B77F381244
:100810000E297F01120E297F10120E297F0C120E55
:10082000297F80120E297F38120E297F01120E298E
:100830007F10120E297F0C120E297F80120E297B49
:10084000FF7A0C791C120DD27F647E00120E017F9C
:1008500001120E297BFF7A0C792F120DD27F011223
:100860000E297BFF7A0C793C120DD27F01120E29E2
:100870007BFF7A0C7945120DD27F01120E297BFF86
:100880007A0C794F120DD27F01120E29120DCC7FF6
:1008900001120E29C2857F647E00120E01C3E50B92
:1008A0009404E50A94005024120E24E50B640145DB
:1008B0000A7003851910E50B6402450A7003851957
:1008C00011E50B6403450A7003851912E50B6404F6
:1008D000450A6003020B2A7F64FE120E01120E21EC
:1008E000120B598F19120E4A7F647E00120E01E519
:1008F00019642A6003020B197FC8FE120E01E50C71
:1009000065106003020AF8E50D65116003020AF83C
:10091000E50E65126003020AF8E50F651360030235
:100920000AF87F01120E297BFF7A0C7970120DD222
:100930007FC87E00120E017F01120E297BFF7A0C08
:100940007978120DD2C3E5099403E5086480948098
:10095000501AD285C2B6120DFDD284D2B6C285120B
:100960000DFD0509E50970DD050880D9751078755C
:100970001178751278751378E4F508F50920B3122B
:1009800020B20FD285D286D2877FC87E00120E0198
:1009900080EB7F01120E297BFF7A0C7988120DD231
:1009A0007FF47E01120E01020AEBC3E5099401E512
:1009B00008648094804003020B2A120DCC7F327EA3
:1009C00000120E017F01120E29C285C286C287D293
:1009D000B67F327E00120E01C3E50B9404E50A9443
:1009E00000502B120E24E50B6401450A7003851993
:1009F00010E50B6402450A7003851911E50B6403C9
:100A0000450A70038519127F327E00120E01E50B34
:100A10006404450A6003020ABF120E21120B598FAB
:100A200019120E4AE519642A6003020ABD7FC8FE46
:100A3000120E01E50C6510703FE50D65117039E58A
:100A40000E65127033E50F6513702D7F01120E29AC
:100A50007BFF7A0C799B120DD27FC87E00120E01AB
:100A60007F01120E297BFF7A0C79AD120DD2C2855F
:100A7000C286C287D2B680FEE4F508F5097F01126E
:100A80000E297BFF7A0C7988120DD2C3E509942CCC
:100A9000E508648094815027D285D286D287D2B768
:100AA000759850758920758DFDD28E759931309964
:100AB000FDC299120DFDC285120DF780CE802CD299
:100AC00085D286D287C2B6120B598F19120E4A05EB
:100AD00009E50970020508D3E50B9404E50A9400C2
:100AE0005009E519642360030209C97F01120E2928
:100AF000E4F50AF50B0209AA7F01120E297BFF7AA1
:100B00000C79BC120DD2120DFD120DFBC2B7120DE5
:100B1000FDD285120DF702088C7F01120E29E4F533
:100B20000AF50BF508F50902088CD285120B598FCE
:100B300019120E4AD3E50B9404E50A94005009E516
:100B400019642360030208947F01120E29E4F50A58
:090B5000F50BF508F50902088C0B
:100B5900E4FF7590FEE590B4EE0A7F2A050BE50BDC
:100B69007002050AE590B4DE0A7F30050BE50B70CB
:100B790002050AE590B4BE0A7F23050BE50B700256
:100B8900050A7590FDE590B4ED0A7F37050BE50B75
:100B99007002050AE590B4DD0A7F38050BE50B7094
:100BA90002050AE590B4BD0A7F39050BE50B700211
:100BB900050A7590FBE590B4EB0A7F34050BE50B4C
:100BC9007002050AE590B4DB0A7F35050BE50B7069
:100BD90002050AE590B4BB0A7F36050BE50B7002E6
:100BE900050A7590F7E590B4E70A7F31050BE50B27
:100BF9007002050AE590B4D70A7F32050BE50B7040
:100C090002050AE590B4B70A7F33050BE50B7002BC
:020C1900050ACA
:010C1B0022B6
:060D9D008B148A15891673
:100DA300E4F517F518F517F518AB14AA15A9168568
:100DB3001882851783120D70FF600D120E4A0518F5
:080DC300E51870E5051780E159
:010DCB002205
:100E4A008FA0D2B4D2B57F0A7E00120E01C2B5229B
:080E2100851913E50B2488FF7D
:100E29008FA0C2B4D2B57F0A7E00120E01C2B522CC
:060DCC007BFF7A0C795F49
:100DD2008B1A8A1B891CAB1AAA1BA91C120D5760FD
:100DE20013051CE51C7002051B14F9120D57FF12A6
:050DF2000E4A80E22220
:0A0DF700C286C287D2B77F2C7E01AE
:100E0100E4FDFCC3ED9FEC9E5015E4FAFB0BBB0027
:0F0E1100010ABA03F8BBE8F50DBD00010C80E43F
:010E200022AF
:03000000020CCB24
:0C0CCB00787FE4F6D8FD75811C020D1244
:100D5700BB010689828A83E0225002E722BBFE029A
:090D6700E32289828A83E49322CD
:100D7000BB010CE58229F582E5833AF583E0225038
:100D800006E92582F8E622BBFE06E92582F8E22282
:0D0D9000E58229F582E5833AF583E493229C
:100CD700020800E493A3F8E493A34003F68001F22B
:100CE70008DFF48029E493A3F85407240CC8C3331E
:100CF700C4540F4420C8834004F456800146F6DFED
:100D0700E4800B0102040810204080900E39E47E35
:100D1700019360BCA3FF543F30E509541FFEE493E1
:100D2700A360010ECF54C025E060A840B8E493A3A8
:100D3700FAE493A3F8E493A3C8C582C8CAC583CAD3
:100D4700F0A3C8C582C8CAC583CADFE9DEE780BE8B
:010E490000A8
:00000001FF
